:020000040000FA
:06000000D4EFC2F0120073
:020006001200E6
:0600080000EF95F012006C
:02000E00FFFFF2
:0400100000000000EC
:02001400FEFEEE
:0100160000E9
:01001700FFE9
:0600180052EF94F012000B
:02001E001200CE
:1000200043880100D4050000010000003F88010062
:10003000CD05000004000000C4870100000E000090
:100040007B000000C3870100D30500000100000011
:1000500063870100000F0000600000005F8701005F
:10006000C9050000040000005D870100D105000003
:100070000200000046870100E801000017000000B0
:1000800045870100FF08000001000000E286010032
:1000900000080000630000007B86010000070000EC
:1000A0006700000017000000FF07000001000000CB
:1000B000248601000009000057000000160000001F
:1000C000FF0100000100000014000000FD08000016
:1000D0000200000010000000C50500000400000040
:1000E0000E000000FE03000002000000E7680100AF
:0800F000FF0000000100000008
:0800F800030145510801FD5D03
:1001000001E11200FE0E0801FD5D1CE01C0EE66E12
:10011000E66A290EE66E030EE66E0801FD511C0D1F
:10012000F3CF14F0F4CF15F0710E1426060E15223D
:1001300014C0E6FF15C0E6FF9DECB9F0166E060E82
:10014000E15E165045C3FDF8FE0E0301455D01E179
:1001500012001C0EE66EE66A030145511C0DF3CF3A
:1001600014F0F4CF15F0710E1426060E152214C0EB
:10017000E6FF15C0E6FF290EE66E030EE66E9DEC67
:10018000B9F0166E060EE15E165012000801FD5120
:100190000801FE5D01E11200FE0E0801FE5D33E084
:1001A000270E0301C56FC66B0301010EC46F030167
:1001B000020EC26F030EC36F0801FE511C0DF3CF78
:1001C000E9FFF4CFEAFF710EE926060EEA221B0EC4
:1001D000E926000EEA22EFCFC1F30801FE511C0D03
:1001E000F3CFE9FFF4CFEAFF710EE926060EEA220B
:1001F000EECFBFF3EFCFC0F30301270EBF5F000EBA
:10020000C05B66EC23F0FDC8FEF8270E0301C56F46
:10021000C66B44C3C4F329C3C2F32AC3C3F30301A7
:10022000C25F000EC35B0301010EC16F0301020E2A
:10023000BF6F030EC06F66EF23F00B01060EC26F97
:10024000140EC36F03010051011112E129EC9FF05C
:1002500006C000F307C001F3FF0E03010017070EED
:1002600003010117000E03010027040E03010123FF
:10027000640EE66EE66AE66A670EE66E070EE66EE6
:10028000EBECB9F0146E050EE15E14500B01BA6B85
:100290000B01B96B0B01B951146E156A040E145C95
:1002A000000E155801E328D1B9CB45F325DFE00E48
:1002B000146E850E156E010E166EB9CB17F0186A06
:1002C000196A060E0C6E0D6A0E6AB9CB07F018C0DB
:1002D00008F019C009F00AECBFF014500424F36EC2
:1002E00015500520F46E16500620F86EF4CFF7FF77
:1002F000F3CFF6FFF62A000EF722F8220800F5CF1A
:10030000C1FBE00E146E850E156E010E166EB9CB94
:1003100017F0186A196A060E0C6E0D6A0E6AB9CBD0
:1003200007F018C008F019C009F00AECBFF014502B
:100330000424F36E15500520F46E16500620F86E56
:10034000F4CFF7FFF3CFF6FF020EF626000EF722EA
:10035000F8220900F5CFBBFB0A00F5CFBCFBE00E8D
:10036000146E850E156E010E166EB9CB17F0186A55
:10037000196A060E0C6E0D6A0E6AB9CB07F018C02A
:1003800008F019C009F00AECBFF005C018F006C06B
:1003900019F014500424F36E15500520F46E165015
:1003A0000620F86EF4CFF7FFF3CFF6FF040EF62623
:1003B000000EF722F8220900F5CFBDFB0A00F5CFA9
:1003C000BEFB0B01C15132E1C2CBBFFBC3CBC0FBB3
:1003D000270E0B01176ABB25166EBC511722010EA2
:1003E0001626000E172216500B01BD25146E17504D
:1003F0000B01BE21156E010E1426000E152214509D
:100400000B01C22715500B01C323C2CB14F0C3CB81
:1004100015F0166A176AD880360E14541E0E15543D
:10042000000E1654000E175402E2EFD7FFD7C1CBCF
:1004300044F3270E0B01BF250301296F000E0B01AA
:10044000C02103012A6F0301030129510B01BB25C0
:1004500003012B6F030103012A510B01BC2103018E
:100460002C6F010E03012B27000E03012C23030127
:1004700003012B510B01BD2503012D6F0301030166
:100480002C510B01BE2103012E6F03010D0E3F6F96
:10049000030140977BDEE00E146E850E156E010E93
:1004A000166EB9CB17F0186A196A060E0C6E0D6A33
:1004B0000E6AB9CB07F018C008F019C009F00AECB1
:1004C000BFF004C017F005C018F006C019F01450B2
:1004D0000424F36E15500520F46E16500620F86EB5
:1004E000F4CFF7FFF3CFF6FF0800F5CF28F363EC66
:1004F00018F00B01B92BCED612000B01A76B0B0124
:10050000A751146E156A040E145C000E155801E311
:10051000D0D0A7CB45F3F0DD0D0E03013F5D01E028
:10052000C5D034DE03014D510301285D01E0BED08A
:100530000301180E256F020E266F03014A510EE1CA
:100540004BC312F34CC313F3030140870301040EA2
:100550003F6F4BC342F34CC343F3A5D00301000EDE
:10056000005D040E015907E30301880ED880005591
:10057000130E015504E20301006B040E016F030129
:1005800000C312F301C313F3002B000E01234BC36E
:1005900010F34CC311F387ECC1F006C037F307C06A
:1005A00038F308C039F309C03AF303014089030165
:1005B0004A51040A34E0070A76E103010301485175
:1005C00003014625166E030103014951030147212A
:1005D000176E165003014B25146E175003014C2162
:1005E000156E1450030112190301426F15500301D7
:1005F00013190301436F46C318F347C319F348C3E4
:100600001AF349C31BF30301276B0301270E026F83
:10061000036B046B056B0301020E3F6F44D046C3AE
:10062000E9FF47C3EAFF020EE926000EEA22EECFF9
:1006300018F0EFCF19F046C3E9FF47C3EAFF18509F
:10064000EE24166E1950EE20176E165003014B253E
:10065000146E175003014C21156E1450030112192A
:100660000301426F1550030113190301436F0A0E72
:10067000E66EE66A46C3E6FF47C3E6FF180EE66E7F
:10068000030EE66E9DECB9F0146E060EE15E14509A
:100690000301050E3F6F0301010EAE6F0301020E51
:1006A000AD6FB9EC11F00B01A75112000B01A72B94
:1006B00026D7FE0C4EC345F31FDD030141A903D02D
:1006C00003014199010C000C4FC345F315DD070EE2
:1006D00003013F5D01E0000C010C50C345F30CDD4C
:1006E00033C335F334C336F303013F51080A4BE0FB
:1006F000010A49E0050A47E0020A41E0050A26E04E
:100700000D0A0BE0010A09E0070A44E0020A42E090
:10071000010A40E0060A37E13DD00301010EAE6F49
:100720000301110EAD6FB9EC11F003011451151155
:100730000AE003010E5103012F19EFE103010F51EC
:1007400003013019EAE10301080E1BD00301010E79
:10075000AE6F0301110EAD6FB9EC11F0030114512E
:1007600015110AE003010E5103012F19EFE10301F6
:100770000F5103013019EAE103010C0E02D003010D
:100780000D0E3F6F12000301AE6B0301140EAD6F2F
:10079000B9EC11F063EF18F051C345F3ADDC030180
:1007A000409751C350F36DEF03F052C345F3A4DCFF
:1007B000EDDC0A0EE66EE66A180EE66E030EE66ED5
:1007C000530EE66E030EE66E9DECB9F0146E060E47
:1007D000E15E145010C35DF311C35EF3530E146E4B
:1007E000030E156E14C0F3FFF46E12005FC345F3E1
:1007F00083DCCCDC03010E5103012F1904E103015A
:100800000F510301301908E00301010EAE6F03011F
:10081000100EAD6FB9EC11F0120060C345F36CDC43
:100820003FC3EAFB070E0B01EA5D07E00B0E0B016D
:10083000EA5D03E0F36AF46A120003013151030137
:100840002F5D03013251030130591FE30301295188
:1008500003012B5D166E2C5103012A55176E1606E7
:10086000000E175A0301315103012F5D186E3051EC
:1008700003013255196E1850165C146E1950175832
:10088000156E14C0F3FFF46E120003012F51030123
:10089000315D146E325103013055156E1406000E91
:1008A000155A14C0F3FF15C0F4FF120061C345F3DD
:1008B00023DC61C360F3B1DFF3CFA5FBF4CFA6FB6C
:1008C000F350F41001E1000C0B01010EA51905E134
:1008D000A65103E161C35FF389DF03014151010BBD
:1008E00017E10301295103012B5D146E2C51030103
:1008F0002A55156ED890153214320B01A551145C8F
:10090000A651155805E361C35FF370DF0301418110
:10091000010E0301C56FC66B0301C46F0301620EB4
:10092000C26F030EC36F44C3C1F32FC3BFF330C301
:10093000C0F366EC23F003012F2B000E30230301DC
:100940002B5103012F5D03012C510301305904E3A6
:1009500029C32FF32AC330F30B01010EA51906E1B9
:10096000A65104E161C35FF341DF010C030140BB09
:1009700014D00301408B91ECC1F006C014F007C005
:1009800015F0166A176A060E1426000E1522162296
:10099000172214C03BF315C03CF3010C0C01166B7D
:1009A000176B63C345F37CEC00F063C360F335DF82
:1009B000F3CF14FCF4CF15FC0C01F350F41006E156
:1009C00063C35FF313DFF36AF46A120014CC12FC02
:1009D00015CC13FC0C0114510301665D0C0115517B
:1009E0000301675904E266C312FC67C313FC0301E9
:1009F00003014151010B17E10301295103012B5D53
:100A0000146E2C5103012A55156ED89015321432EC
:100A10000C011451145C1551155805E363C35FF3C1
:100A2000E5DE03014181030103012F510C01122571
:100A3000146E0301030130510C011321156E0301E3
:100A40002B51145C2C51155833E303012F51030132
:100A50002B5D0C01166F0301305103012C590C0161
:100A6000176F16CCC5F3E8CFC6F30301010EC46FB0
:100A700064C3C2F365C3C3F344C3C1F32FC3BFF35D
:100A800030C3C0F366EC23F00C0116510301642758
:100A90000C011751030165230C0116510C01125F63
:100AA0000C0117510C01135B29C32FF32AC330F338
:100AB00012CCC5F313CCC6F30301010EC46F64C39B
:100AC000C2F365C3C3F344C3C1F32FC3BFF330C341
:100AD000C0F366EC23F00C01125103012F270C0127
:100AE0001351030130230C0114510301665D0C0105
:100AF00015510301675904E363C35FF377DE17D031
:100B0000030140BB14D00301408B91ECC1F006C03F
:100B100014F007C015F0166A176A060E1426000EA8
:100B200015221622172214C03BF315C03CF30C010A
:100B30000C0112510C011625146E0C010C011351FD
:100B40000C011721156E14C0F3FFF46E12000B0197
:100B5000CD6BCE6B68C345F37CEC00F068C360F3EB
:100B60005CDEF3CFCBFBF4CFCCFB0B01F350F410E6
:100B700006E168C35FF33ADEF36AF46A1200030128
:100B80004151010B17E10301295103012B5D146E43
:100B90002C5103012A55156ED890153214320B01D1
:100BA000CB51145CCC51155805E368C35FF31EDECE
:100BB00003014181CBCBC9FBCCCBCAFB0B01CB5191
:100BC00003016C5D0B01CC5103016D5904E26CC350
:100BD000C9FB6DC3CAFB030103012F510B01C925DA
:100BE000146E0301030130510B01CA21156E03017C
:100BF0002B51145C2C51155838E303012F5103017C
:100C00002B5D0B01CD6F0301305103012C590B01FA
:100C1000CE6FCDCBCDF3E8CFCEF369C3CAF36AC3B1
:100C2000CBF36BC3CCF344C3C9F32FC3C7F330C3B7
:100C3000C8F3C8EC23F0CDCB14F0CECB15F0166A78
:100C4000145003016927155003016A23165003014C
:100C50006B230B01CD510B01C95F0B01CE510B0171
:100C6000CA5B29C32FF32AC330F3C9CBCDF3CACB58
:100C7000CEF369C3CAF36AC3CBF36BC3CCF344C3EB
:100C8000C9F32FC3C7F330C3C8F3C8EC23F00B017B
:100C9000C95103012F270B01CA51030130230B0156
:100CA000CB5103016C5D0B01CC5103016D5904E381
:100CB00068C35FF39BDD17D0030140BB14D0030171
:100CC000408B91ECC1F006C014F007C015F0166A15
:100CD000176A060E1426000E15221622172214C0BB
:100CE0003BF315C03CF30B010B01C9510B01CD25A2
:100CF000146E0B010B01CA510B01CE21156E14C0ED
:100D0000F3FFF46E12006FC3E6FF70C3E6FF75ECED
:100D1000BAF0E552E552F3CF66F3F4CF67F36FC351
:100D200064F370C365F36EC363F338DE03016F5180
:100D3000F324146E030103017051F420156E14C0E6
:100D4000F3FFF46E120072C3E6FF73C3E6FF74C3D1
:100D5000E6FF83ECBAF0E552E552E55207C06CF3CA
:100D600008C06DF372C369F373C36AF374C36BF3A2
:100D700071C368F3ECDE196A03017251F324146E37
:100D800003017351F420156E030174511920166E7E
:100D900014C007F015C008F0096E120075C345F3C2
:100DA0007CEC00F00301295103012B5D0B01A76FBF
:100DB00003012A5103012C590B01A86F0B01010EED
:100DC000A75F000EA85B75C360F327DDF3CFA5FB1B
:100DD000F4CFA6FB0B01F3500B01A75D146EA851D5
:100DE0000B01F454156E14C0F3FFF46E120076C3B9
:100DF00077F318D8F3CF14F0F4CF15F0F350F410C4
:100E000010E076C345F37CEC00F033C335F334C314
:100E100036F30301010EAE6F0301100EAD6FB9EC96
:100E200011F0120077C345F37CEC00F0030135515B
:100E30000301335D030136510301345909E3030112
:100E400035510301335D146E3451030136551BD007
:100E50000301355103012D5D166E2E5103013655E8
:100E6000176E010E1626000E172203012B510301E7
:100E7000335D186E345103012C55196E1650182429
:100E8000146E17501920156E14C0F3FFF46E120083
:100E900078C377F3C7DFF3CFA5FBF4CFA6FB0B0135
:100EA000F350F41001E1000C78C345F37CEC00F042
:100EB000030179517A1112E0010E0301C56FC66B6F
:100EC00044C3C4F335C3C2F336C3C3F30301C16FD4
:100ED00079C3BFF37AC3C0F366EC23F00301352B6B
:100EE000000E36230301355103012D5D03013651F8
:100EF00003012E5904E22BC335F32CC336F30B0147
:100F0000010EA51905E1A65103E103014185010C7C
:100F1000030140BB14D00301408B91ECC1F006C02B
:100F200014F007C015F0166A176A1F0E1426000E7B
:100F300015221622172214C03BF315C03CF3010CF6
:100F40000B01A76BA86B7BC377F36CDFF3CFA5FB1B
:100F5000F4CFA6FB0B01F350F41003E1F36AF46A3B
:100F600012007BC345F37CEC00F003017E510B01C2
:100F7000A55D03017F510B01A65904E2A5CB7EF3C9
:100F8000A6CB7FF303010301355103017E25146EC7
:100F900003010301365103017F21156E0301145033
:100FA0002D5D15502E593DE20301355103012D5D94
:100FB0000B01A76F0301365103012E590B01A86FD6
:100FC000010E0B01A727000E0B01A82303017C5182
:100FD0007D111BE0A7CBC5F3A8CBC6F344C3C4F374
:100FE00035C3C2F336C3C3F30301010EC16F7CC323
:100FF000BFF37DC3C0F366EC23F00B01A7510301DF
:101000007C270B01A85103017D230B01A75103018C
:101010007E5F0B01A85103017F5B2BC335F32CC30B
:1010200036F303017C517D1113E07EC3C5F37FC30A
:10103000C6F344C3C4F335C3C2F336C3C3F30301D9
:10104000010EC16F7CC3BFF37DC3C0F366EC23F018
:1010500003017E510301352703017F51030136232C
:101060000B01A75103017E270B01A85103017F2328
:1010700003017E510B01A55D146EA65103017F553E
:10108000156E030114507E5D15507F5903E3030173
:10109000418517D0030140BB14D00301408B91EC74
:1010A000C1F006C014F007C015F0166A176A1F0ECB
:1010B0001426000E15221622172214C03BF315C069
:1010C0003CF37EC3F3FF7FC3F4FF120080C345F3FC
:1010D0007CEC00F003012B5103012D5D0B01A76F88
:1010E00003012C5103012E590B01A86F80C377F324
:1010F00099DE0B01F3500B01A75D146EA8510B0193
:10110000F454156E14C0F3FFF46E12000301845101
:10111000851103E1F36AF46A120081C345F37CECA4
:1011200000F081C377F37EDEF3CFA7FBF4CFA8FBFB
:101130000301865103018425146E030187510301C5
:101140008521156E0B011450F35C1550F4580CE218
:10115000030186510B01A75D0301846F03018751D1
:101160000B01A8590301856F0301030135510301E8
:1011700086250B01A56F0301030136510301872169
:101180000B01A66F0B01A55103012D5D0B01A651AB
:1011900003012E5913E203012B5103012D5D146E3F
:1011A0002E5103012C55156E010E1426000E15222A
:1011B00014500B01A55F15500B01A65B0B01A55147
:1011C00003012D5D0B01A96F0B01A65103012E59DF
:1011D0000B01AA6F010E0B01A927000E0B01AA2318
:1011E000030184510B01A95D030185510B01AA592B
:1011F00012E384C3C5F385C3C6F344C3C4F3A5CBCC
:10120000C2F3A6CBC3F30301010EC16F82C3BFF3C8
:1012100083C3C0F336D0A9CBC5F3AACBC6F344C36E
:10122000C4F3A5CBC2F3A6CBC3F30301010EC16F78
:1012300082C3BFF383C3C0F366EC23F00B01A95153
:101240000301845D0301C56F0B01AA510301855998
:101250000301C66F44C3C4F32BC3C2F32CC3C3F34F
:101260000301010EC16F0301030182510B01A92586
:101270000301BF6F0301030183510B01AA21030185
:10128000C06F66EC23F084C3F3FF85C3F4FF120044
:1012900089C386F38AC387F3010E0301846F856BCC
:1012A0000301AB0E826F0B0E836F88C381F32EDFB9
:1012B0000B01AB51120003018E518F1103E1F36A50
:1012C000F46A12008BC345F37CEC00F08BC377F318
:1012D000A9DD03019051F35C0B01A76F030191514C
:1012E000F4580B01A86F03018E510B01A75D030198
:1012F0008F510B01A85901E2ACD103019251931116
:101300000DE00B01A7510301925D0B01A8510301F0
:10131000935904E292C3A7FB93C3A8FB0301030103
:101320003551030190250B01AB6F030103013651C9
:10133000030191210B01AC6F0B01AB5103012D5D3A
:101340000B01AC5103012E5913E203012B51030190
:101350002D5D146E2E5103012C55156E010E1426B1
:10136000000E152214500B01AB5F15500B01AC5B46
:10137000ABCBA5FBACCBA6FB0B01AB5103012D5DA9
:101380000B01A96F0B01AC5103012E590B01AA6F80
:10139000010E0B01A927000E0B01AA2390C3ABFB82
:1013A00091C3ACFB8EC3ADFB8FC3AEFB8CC3AFFB55
:1013B0008DC3B0FB03018CC3E9FF8DC3EAFF8C2B07
:1013C0008D23EFCFB2FB0B01B46B030194510BE003
:1013D000610E0B01B25D07E30B01B2517A0803E322
:1013E000E00E0B01B2270B01200EB36F0B01E8508A
:1013F0000B01A95D000EAA5902E2A9CBB3FB0B01B8
:10140000B3510B01A75D000EA85902E2A7CBB3FBB5
:101410000B01B3510301C56FC66B44C3C4F3A5CB25
:10142000C2F3A6CBC3F30301010EC16F0301B50ED6
:10143000BF6F0B0EC06F66EC23F00B01B351146E3F
:10144000156A14500B01A52715500B01A6230B019B
:10145000B351146E156A14500B01A95F15500B019E
:10146000AA5B0B01A951AA1107E12BC3A5FB2CC351
:10147000A6FB0B01A969AA690301945101E17AD085
:101480000B01B16B0B01B3510B01B15D01E3CED088
:101490000B01B151EA6AB50FE96E0B0EEA22EFCFEC
:1014A00014F0610E145C15E30B01B151EA6AB50F3B
:1014B000E96E0B0EEA22EF507A080BE3E00E146E91
:1014C0000B01B151EA6AB50FE96E0B0EEA22145016
:1014D000EF260B01B151EA6AB50FE96E0B0EEA2255
:1014E000EF500B01B25D21E103018E07000E8F5B0F
:1014F00003018E518F1158E003018CC3E9FF8DC3A6
:10150000EAFF8C2B000E8D23EFCFB2FB0B01010EF7
:10151000B46F610E0B01B25D2AE30B01B2517A0880
:1015200026E3E00E0B01B22722D0ADCB8EF3AECB7B
:101530008FF30B01B4511BE0AFCB8CF3B0CB8DF329
:101540000301AFCBE9FFB0CBEAFF8C2B000E8D235C
:10155000EFCFB2FB610E0B01B25D07E30B01B2519D
:101560007A0803E3E00E0B01B2270B01B46B0B0109
:10157000B12B88D70B01B16B0B01B3510B01B15DDE
:1015800055E20B01B151EA6AB50FE96E0B0EEA2282
:10159000EF500B01B25D30E103018E07000E8F5B4F
:1015A00003018E518F111AE10B01AD510B01AB5D9F
:1015B000166EAC510B01AE55176E0B01B151000107
:1015C0001624146E000E1720156E010E1426000E40
:1015D000152214C0F3FF15C0F4FF120003018CC3E1
:1015E000E9FF8DC3EAFF8C2B000E8D23EFCFB2FBFA
:1015F0000B01010EB46F17D0ADCB8EF3AECB8FF3D2
:101600000B01B45110E0AFCB8CF3B0CB8DF30301E1
:10161000AFCBE9FFB0CBEAFF8C2B000E8D23EFCFD1
:10162000B2FB0B01B46B0B01B12BA6D70B01B3516D
:10163000146E156A14500B01A75F15500B01A85BBF
:1016400003018E510B01A75D03018F510B01A859B6
:1016500003E2F368F46812000B01B351146E156ACB
:1016600014500B01AB2715500B01AC23BCD6030162
:1016700099519A1103E1F36AF46A120095C345F394
:101680007CEC00F095C377F312EC07F003019B515B
:10169000F35C0B01A76F03019C51F4580B01A86F79
:1016A000030199510B01A75D03019A510B01A85940
:1016B00001E2C6D103019D519E110DE00B01A7511E
:1016C00003019D5D0B01A85103019E5904E29DC3D6
:1016D000A7FB9EC3A8FB03010301355103019B2512
:1016E0000B01AB6F03010301365103019C210B0178
:1016F000AC6F0B01AB5103012D5D0B01AC5103012C
:101700002E5913E203012B5103012D5D146E2E514E
:1017100003012C55156E010E1426000E15221450CF
:101720000B01AB5F15500B01AC5BABCBA5FBACCB9E
:10173000A6FB0B01AB5103012D5D0B01A96F0B0142
:10174000AC5103012E590B01AA6F010E0B01A92701
:10175000000E0B01AA239BC3ABFB9CC3ACFB99C33C
:10176000ADFB9AC3AEFB96C3AFFB97C3B0FB98C368
:10177000B1FB030196C3F6FF962B97C3F7FF9723A0
:1017800098C3F8FF98230800F5CFB3FB0B01B56BA6
:1017900003019F510BE0610E0B01B35D07E30B01E9
:1017A000B3517A0803E3E00E0B01B3270B01200EBF
:1017B000B46F0B01E8500B01A95D000EAA5902E2BB
:1017C000A9CBB4FB0B01B4510B01A75D000EA859C6
:1017D00002E2A7CBB4FB0B01B4510301C56FC66B8A
:1017E00044C3C4F3A5CBC2F3A6CBC3F30301010EDC
:1017F000C16F0301B60EBF6F0B0EC06F66EC23F016
:101800000B01B451146E156A14500B01A527155025
:101810000B01A6230B01B451146E156A14500B0171
:10182000A95F15500B01AA5B0B01A951AA1107E191
:101830002BC3A5FB2CC3A6FB0B01A969AA69030155
:101840009F5101E184D00B01B26B0B01B4510B012C
:10185000B25D01E3E2D00B01B251EA6AB60FE96E64
:101860000B0EEA22EFCF14F0610E145C15E30B01AE
:10187000B251EA6AB60FE96E0B0EEA22EF507A080F
:101880000BE3E00E146E0B01B251EA6AB60FE96E7B
:101890000B0EEA221450EF260B01B251EA6AB60F82
:1018A000E96E0B0EEA22EF500B01B35D25E1030157
:1018B0009907000E9A5B030199519A1162E00301A6
:1018C00096C3F6FF962B97C3F7FF000E972398C396
:1018D000F8FF98230800F5CFB3FB0B01010EB56F9D
:1018E000610E0B01B35D30E30B01B3517A082CE3B9
:1018F000E00E0B01B32728D0ADCB99F3AECB9AF312
:101900000B01B55121E0AFCB96F3B0CB97F3B1CB40
:1019100098F30301AFCBF6FF962BB0CBF7FF000E89
:101920009723B1CBF8FF98230800F5CFB3FB610EE6
:101930000B01B35D07E30B01B3517A0803E3E00E3B
:101940000B01B3270B01B56B0B01B22B7ED70B013B
:10195000B26B0B01B4510B01B25D5FE20B01B251EE
:10196000EA6AB60FE96E0B0EEA22EF500B01B35D87
:1019700034E103019907000E9A5B030199519A1112
:101980001AE10B01AD510B01AB5D166EAC510B01B1
:10199000AE55176E0B01B25100011624146E000EE5
:1019A0001720156E010E1426000E152214C0F3FF29
:1019B00015C0F4FF1200030196C3F6FF962B97C3E0
:1019C000F7FF000E972398C3F8FF98230800F5CF80
:1019D000B3FB0B01010EB56F1DD0ADCB99F3AECBB0
:1019E0009AF30B01B55116E0AFCB96F3B0CB97F35A
:1019F000B1CB98F30301AFCBF6FF962BB0CBF7FF3B
:101A0000000E9723B1CBF8FF98230800F5CFB3FB66
:101A10000B01B56B0B01B22B9CD70B01B451146EAB
:101A2000156A14500B01A75F15500B01A85B030149
:101A300099510B01A75D03019A510B01A85903E2CB
:101A4000F368F46812000B01B451146E156A145057
:101A50000B01AB2715500B01AC23A8D6A6C394F3FA
:101A6000A4C392F3A5C393F3A2C390F3A3C391F3CA
:101A7000010E03018E6F8F6B0301A10E8C6F030E9D
:101A80008D6FA0C38BF35BEF09F00B01C16B0B01F2
:101A9000C151146E156A040E145C000E155801E352
:101AA00019D3C1CB45F37CEC00F00B01C46B0B01E7
:101AB000C26B0B01C36B030103014151020B05E132
:101AC000030103014151040B0EE0DEECA3F0000919
:101AD0000AE00B01100EC46F03014151040B01E039
:101AE000010E0B01C26F030140AB13D091ECC1F0AA
:101AF000030106503B5D146E07503C59156EE834E7
:101B000004E214500008000E155403E30B01100EFC
:101B1000C46F030140AD13D091ECC1F00301065036
:101B20003D5D146E07503E59156EE83404E21450C2
:101B30000008000E155403E30B01100EC46F0B0ECA
:101B400003013F5D16E191ECC1F0030106503D5DDC
:101B5000146E07503E59156EE83404E21450000824
:101B6000000E155406E30B01110EC46F03010C0E99
:101B70003F6F040E03013F5D01E01ED10B01C56BF9
:101B8000C66B0B01050EC55D000EC65901E314D1ED
:101B9000C5CBE9FFC6CBEAFF140EEA02F3CFEAFF9A
:101BA000E902F3CFE9FFF450EA26670EE926070EB3
:101BB000EA22100EE926000EEA22EE50ED1001E1B5
:101BC000FBD0C5CBE9FFC6CBEAFF140EEA02F3CF88
:101BD000EAFFE902F3CFE9FFF450EA26670EE926AF
:101BE000070EEA22100EE926000EEA22EECF14F0CC
:101BF000EFCF15F003014251141801E0D8D0435142
:101C0000151801E0D4D0C6EC00F00A0EE66EE66AC4
:101C1000C5CBE9FFC6CBEAFF140EEA02F3CFEAFF19
:101C2000E902F3CFE9FFF450EA26670EE926070E32
:101C3000EA22E9CF14F0EACF15F0E9CFE6FFEACFC8
:101C4000E6FF180EE66E030EE66E9DECB9F0060E8A
:101C5000E15EC5CBE9FFC6CBEAFF140EEA02F3CF83
:101C6000EAFFE902F3CFE9FFF450EA26670EE9261E
:101C7000070EEA220A0EE926000EEA22EECF10F342
:101C8000EDCF11F3C5CBE9FFC6CBEAFF140EEA0294
:101C9000F3CFEAFFE902F3CFE9FFF450EA26670E3B
:101CA000E926070EEA220C0EE926000EEA22EECF04
:101CB0000AF3EECF0BF3EECF0CF3EFCF0DF30301EE
:101CC0000A2B03010B2303010C2303010D23030142
:101CD00003011A5103011825166E030103011B515C
:101CE00003011921176E165003011025146E1750A9
:101CF00003011121156E1450030112190301426FE3
:101D00001550030113190301436F0B01120EC46F29
:101D10000301060E3F6FC5CBC5F3C6CBC6F3030167
:101D2000040ED880C557000EC6570301140EC60313
:101D3000F3CFC6F3C503F3CFC5F3F450C6270301B1
:101D4000010EC46F0B01C5250301C26F000E0B010C
:101D5000C6210301C36F0301140EC303F3CFC3F302
:101D6000C203F3CFC2F3F450C327670E0301C227A7
:101D7000070E0301C3230301010EC16F140E086E89
:101D8000096AC5CB0DF0C6CB0EF0ECECBEF006C078
:101D9000BFF307C0C0F3670E0301BF27070E03019F
:101DA000C02366EC23F00701C76BC86B05D00B019D
:101DB000C52B000EC623E5D60B01C4510BE00B0169
:101DC000C25102E0000E01D0010E0301AE6FC4CB80
:101DD000ADF3CFDA030140B958D0070E03013F5DE0
:101DE00001E075D187ECC1F003013751065C146E38
:101DF000030138510758156E030139510858166E02
:101E000003013A510958176E0001800E171401E0C2
:101E10005ED103014051070B060817E10301405151
:101E2000080B01E0010E0B01C46FC1CB50F36DEC48
:101E300003F0C1CB50F36DEC03F00B01C45101E092
:101E400046D103010E0E3F6F42D1C6EC00F00301F4
:101E5000020EAE6F0301100EAD6F8BDA87ECC1F08E
:101E600006C037F307C038F308C039F309C03AF3A6
:101E7000740E03013727350E03013823060E0301C4
:101E80003923000E03013A2322D187ECC1F003016C
:101E90003751065C146E030138510758156E030163
:101EA00039510858166E03013A510958176E00014E
:101EB000800E171401E00BD1C6EC00F003013F5176
:101EC0000C0A01E195D0060A01E18BD0030A01E179
:101ED0009AD0010A01E180D00F0A73E00C0A71E088
:101EE0000D0A62E0030A4AE0060A13E0010A01E073
:101EF00090D091ECC1F006C03BF307C03CF3020167
:101F0000180EF86F030EF96FAFECB5F00301030E76
:101F100033D002011C0EFC6F030EFD6F0201180E80
:101F2000FA6F030EFB6F00ECB6F000091EE191ECB6
:101F3000C1F003013B51065C146E3C510758156E0D
:101F400003011450025D1550035963E2060E0301AC
:101F5000275D08E20301272B0301D89002370337DE
:101F6000043705370301020E07D00B01020EC46FC0
:101F70000B01C26B0301050E3F6F4BD00B01020E2C
:101F8000C46F0B01010EC26F040E0301275D41E314
:101F90000301040E276F0301200E026FEF0E036F83
:101FA000090E046F056B35D0020E0301275D03E2B5
:101FB0000B01120E23D0030140B725D00B01020EF6
:101FC00009D0050E0301275D10E30301080E3F6FE2
:101FD0000B01110EC46F1DD0050E0301275D13E226
:101FE0000BD0050E0301275D0EE20B01100E06D08B
:101FF000050E0301275D07E20B01110EC46F0B01F3
:10200000010EC26F06D00B01140EC46F0B01010E3E
:10201000C36F0B01C45156E00B01C2514DE00301E7
:10202000272B0301D8900237033704370537030104
:10203000315103010E5D0B01C56F030132510301E4
:102040000F590B01C66F0301315103010E5D0301EE
:10205000325103010F590FE20301295103012B5D96
:10206000146E2C5103012A55156E14500B01C5270F
:1020700015500B01C623C5CB14F0C6CB15F0166A5C
:10208000176A14500301065F15500301075B1650D1
:102090000301085B17500301095B0B01C5510301E4
:1020A00014270B01C6510301152331C30EF332C3AC
:1020B0000FF30301AE6B03D00301010EAE6FC4CB6F
:1020C000ADF357D90B01C35102E063EC18F00B01DB
:1020D000C12BDDD40B01C56BC66B0B01050EC55DB5
:1020E000000EC65901E39ED0C5CBE9FFC6CBEAFF7F
:1020F000140EEA02F3CFEAFFE902F3CFE9FFF4504E
:10210000EA26670EE926070EEA22100EE926000EDF
:10211000EA22EE50ED1001E11200C5CBE9FFC6CB7B
:10212000EAFF140EEA02F3CFEAFFE902F3CFE9FF78
:10213000F450EA26670EE926070EEA22120EE92677
:10214000000EEA22EECF16F0EFCF17F016C0E6FF32
:1021500017C0E6FF91ECC1F0E552E7CF17F0E5526A
:10216000E7CF16F01650065C146E17500758156E20
:10217000DC0ED8801454010E15544FE2C5CBC5F3C4
:10218000C6CBC6F30301040ED880C557000EC65750
:102190000301140EC603F3CFC6F3C503F3CFC5F393
:1021A000F450C6270301010EC46F0B01C5250301BE
:1021B000C26F000E0B01C6210301C36F0301140E91
:1021C000C303F3CFC3F3C203F3CFC2F3F450C32767
:1021D000670E0301C227070E0301C3230301010E8B
:1021E000C16F140E086E096AC5CB0DF0C6CB0EF098
:1021F000ECECBEF006C0BFF307C0C0F3670E0301EE
:10220000BF27070E0301C02366EC23F00701C76B4D
:10221000C86B0B01C507000EC65B0B01C52B000E7A
:10222000C6235BD71200A7C3E9FFA8C3EAFFEECF1E
:10223000B9FBEECFBAFBEECFBBFBEFCFBCFBA9C324
:10224000E9FFAAC3EAFFEECFBDFBEECFBEFBEECFA8
:10225000BFFBEFCFC0FB0B01C16B0B01060EC26FC2
:10226000ABC3C3FBACC3C4FBABC3E5F7ACC3E6F77E
:102270003AECA2F0F3CFC3FBF4CFC4FB0C0E070182
:10228000ED6FEE6B0701B90EEB6F0B0EEC6F60ECB0
:10229000A2F0F3CFC5FBF4CFC6FB0B01C51FC61FD1
:1022A000ABC3E1F4ACC3E2F4CAECA5F0F3CFC7FBD7
:1022B000F4CFC8FB0B01F3500B01C51957E10B011B
:1022C000C8510B01C61952E10801EF6BF06BD7EC56
:1022D000BBF0140E0401EB6FEC6B0401A50EE96F6B
:1022E0000B0EEA6F4AECA7F00301A50EB36F0B0EBD
:1022F000B46F88EC17F00B01B151F00BE842E842E3
:10230000E842E842040DF350146E156A140E145E90
:10231000000E155A14C0C9FB0B011450146E156A37
:10232000E8500301AB5D0301AB6F15500301AC59DD
:102330000301AC6F0301140EAB5F000EAC5BA7C3CF
:10234000B1F3A8C3B2F30301A50EAF6F0B0EB06FCC
:1023500052DB00090BE0ABC3B7F3ACC3B8F3030126
:10236000A50EB56F0B0EB66F39EC19F0F7ECA3F0B4
:10237000010CC6EC00F00301ADA104D003014187BC
:102380000301AD910301409B0301409D0301409F68
:10239000030141930301419503014191DEECA3F058
:1023A0000009FCE0060E0301AD1504E00C01106B02
:1023B000116B26D103010E5103012F1909E103010D
:1023C0000F510301301904E10C01106B116BFFD0A8
:1023D00003012F5103010E5D0301305103010F5919
:1023E00044E203010E5103012F5D0C01106F030144
:1023F0000F51030130590C01116F0C0110510301F1
:10240000145D0C0111510301155904E214C310FCB1
:1024100015C311FC0C0110510301255D0C01115174
:102420000301265906E225C310FC26C311FC030153
:10243000418510CCC5F311CCC6F344C3C4F30EC31D
:10244000C2F30FC3C3F30301C16B03014B0EBF6F94
:102450000E0EC06F66EC23F00C01105103010E2725
:102460000C01115103010F23B2D003010E510301DE
:102470002B5D0C010E6F03010F5103012C590C0150
:102480000F6F0C010C010E5103012F25146E0C016E
:102490000C010F5103013021156E03012951145C09
:1024A0000C01106F03012A5115580C01116F0C011A
:1024B00010510301145D0C0111510301155904E27F
:1024C00014C310FC15C311FC0C0110510301255D50
:1024D0000C0111510301265906E225C310FC26C345
:1024E00011FC030141850C010E510C01105D0C0122
:1024F0000F510C01115904E210CC0EFC11CC0FFC51
:102500000ECCC5F30FCCC6F344C3C4F30EC3C2F361
:102510000FC3C3F30301C16B03014B0EBF6F0E0E5C
:10252000C06F66EC23F00C010E510C01105D0C0124
:102530000E6F0C010F510C0111590C010F6F0C01A2
:102540000E510F1124E00ECCC5F30FCCC6F344C3DB
:10255000C4F329C3C2F32AC3C3F30301C16B03014C
:102560000E5103012B5D146E2C5103010F55156E96
:10257000166A176A4B0E14260E0E1522000E16222E
:10258000172214C0BFF315C0C0F366EC23F00C0192
:10259000105103010E270C01115103010F230301F8
:1025A0002B5103010E5D03012C5103010F590FE361
:1025B0000301295103012B5D146E2C5103012A558F
:1025C000156E145003010E5F155003010F5B0301DC
:1025D00041A716D0030114510C01101904E10301A5
:1025E00015510C0111190CE0030125510C011019B2
:1025F00004E1030126510C01111902E00301AD8130
:102600000C011051111104E1030E0301AD1533E06B
:102610000C0110510301145F0C0111510301155BF2
:102620000C011051111102E00301AD870301AEA1AD
:1026300009D00301276B0301F20E026F9E0E036F98
:10264000046B056B87ECC1F0065003010225030102
:10265000376F0750030103210301386F085003014E
:1026600004210301396F09500301052103013A6F69
:102670000301408947D00301AEA31DD0400EE96E8F
:10268000030EEA6EEF50070BE82AE850070BF36ED3
:10269000F46EF80EEF14F310EF6E03010607000E50
:1026A0000301075B0301085B0301095B010E0C01D9
:1026B000106F116B27D0030140A924D00301AEB1E4
:1026C0000BD00301275108E0030127070301D8902D
:1026D000053304330333023387ECC1F006500301A2
:1026E00002250301376F0750030103210301386FEF
:1026F0000850030104210301396F0950030105212A
:1027000003013A6F12C3ECFB13C3EDFB10C3EEFBE6
:1027100011C3EFFB06C3F0FB07C3F1FB08C3F2FBD9
:1027200009C3F3FB0AC3F4FB0BC3F5FB0CC3F6FBB5
:102730000DC3F7FB0B010B01F891F893F895F8978F
:10274000ADC3F9FB0B01FE6BFF6B0C0110510301D4
:1027500006270C01115103010723000E082309234A
:102760000301ADA31AD00301ADB905D00B01F46B81
:10277000F56BF66BF76B030124A307D00B01F00791
:10278000000EF15BF25BF35B08D00301062B000E39
:10279000072308230923030124830301ADA112D0D9
:1027A000030124A107D00B01F007000EF15BF25BDF
:1027B000F35B08D00301062B000E0723082309232F
:1027C00003012481030135510301335D03013651B7
:1027D000030134591AE303012B5103012D5D146EDB
:1027E0002E5103012C55156E030135510301335D44
:1027F000166E345103013655176E0B011650145CDA
:10280000FA6F17501558FB6F11D0030133510301B4
:10281000355D0B01FA6F03013451030136590B0189
:10282000FB6F0B01010EFA5F000EFB5B2FECA4F0B7
:10283000F3CFEAFBF4CFEBFB0B01400EEA5F000E97
:10284000EB5B0B01800EEB1503E00B01EA6BEB6B0E
:102850000B01FA510B01EA5D0B01FB510B01EB5926
:1028600004E2EACBFAFBEBCBFBFB0301EC0EB36F0C
:102870000B0EB46F4DDB140E0C011027000E0C0173
:1028800011230B01F889F89BF88DF89F0301ADA384
:102890002AD0040E0C011027000E0C0111230C018C
:1028A000020E006F0C01040E016F0C01050E026F89
:1028B000B40E036F010E146EF80EE96E0B0EEA6E85
:1028C000EF50F00BE842E842E842E84214240F0BD4
:1028D000F36EF46EF346F346F346F3460F0EEF1431
:1028E000F310EF6EF45000C604FC01C605FC02C6EE
:1028F00006FC03C607FC18C308FC19C309FC1AC36D
:102900000AFC1BC30BFC0C010C6B0C01060E0D6FBB
:1029100010CC0EFC11CC0FFC10CCE5F711CCE6F777
:102920003AECA2F0F3CF0EFCF4CF0FFC0C0E070133
:10293000ED6FEE6B0701040EEB6F0C0EEC6F60ECAD
:10294000A2F0F3CFFCFBF4CFFDFB0B01FC1FFD1F3E
:102950000401230ED96F0E0EDA6F76ECA5F010CCC1
:10296000EDF811CCEEF80801060EEC6F0801180E18
:10297000EA6F030EEB6F61ECBBF0140E0401F06F15
:10298000F16B0401EC0EEE6F0B0EEF6F80ECA7F015
:102990000301ADA30BD0040E0401F06FF16B040131
:1029A000000EEE6F0C0EEF6F80ECA7F00401370EF7
:1029B000DB6F0E0EDC6F83ECA5F010CCE1F411CCD4
:1029C000E2F4CAECA5F0F3CFEAFBF4CFEBFB040191
:1029D000470ED96F0E0EDA6F76ECA5F0020E0401E9
:1029E000F06FF16B0401EA0EEE6F0B0EEF6F80ECEF
:1029F000A7F038EFA5F0AFC3E9FFB0C3EAFF020EBE
:102A0000E926000EEA22EE50ED1001E1000C0B0168
:102A1000FE0ECB6FB1C3E9FFB2C3EAFF020EE92697
:102A2000000EEA22EECF18F0EFCF19F0B1C3E9FFA4
:102A3000B2C3EAFF1850EE24166E1950EE20176E3E
:102A4000AFC3E9FFB0C3EAFF1650EE24146E17506F
:102A5000EE20156EAFC3E9FFB0C3EAFF020EE92610
:102A6000000EEA221450EE180B01CC6F1550EE1830
:102A70000B01CD6F0B01CA6B0B01CA51146E156AA5
:102A8000040E145C000E155869E2CACB45F37CECC9
:102A900000F00D0E03013F5D5EE0040E03013F5D9B
:102AA00016E1AFC3E9FFB0C3EAFF020EE926000E4C
:102AB000EA22EECF14F0EFCF15F0145003014219C3
:102AC0004AE11550431947E1CACBCBFB44D00B0177
:102AD000CC51030142193FE10B01CD5103014319D0
:102AE0003AE1C6EC00F0AFC3E9FFB0C3EAFF020E63
:102AF000E926000EEA22EECF14F0EFCF15F0030125
:102B00001251141828E11351151825E1AFC3E9FF3C
:102B1000B0C3EAFFEECF16F0EFCF17F0030110516C
:102B2000161819E11151171816E1B1C3E9FFB2C324
:102B3000EAFFEE50030118190EE1EE5003011919D6
:102B40000AE1EE5003011A1906E1EE5003011B19C8
:102B500002E101E1010C0B01CA2B8ED7FE0E0B0125
:102B6000CB5D38E0CBCB45F37CEC00F0C6EC00F05D
:102B7000FE0E0B01CB5D2EE0CCCB42F3CDCB43F36D
:102B80000A0EE66EE66AB1C3E6FFB2C3E6FF180EB0
:102B9000E66E030EE66E9DECB9F0146E060EE15E75
:102BA0001450AFC3E9FFB0C3EAFFEECF10F3EDCF8F
:102BB00011F3AFC3E9FFB0C3EAFF020EE926000E2E
:102BC000EA22EECF12F3EDCF13F329C30EF32AC39B
:102BD0000FF3010CAFC3E9FFB0C3EAFF0D0EE92606
:102BE000000EEA22EF50020B01E1000C0701C75171
:102BF000C81101E0000C0B01CE6BCF6B0B01050E71
:102C0000CE5D000ECF5901E39ED0CECBE9FFCFCBF6
:102C1000EAFF140EEA02F3CFEAFFE902F3CFE9FF7D
:102C2000F450EA26670EE926070EEA22100EE9267E
:102C3000000EEA22EE50ED1001E185D0CECBE9FF87
:102C4000CFCBEAFF140EEA02F3CFEAFFE902F3CF9B
:102C5000E9FFF450EA26670EE926070EEA22100E75
:102C6000E926000EEA22EECF14F0EFCF15F0AFC345
:102C7000E9FFB0C3EAFF020EE926000EEA22EECF1A
:102C800016F0EFCF17F01650141858E1175015181A
:102C900055E1CECBE9FFCFCBEAFF140EEA02F3CF2A
:102CA000EAFFE902F3CFE9FFF450EA26670EE926CE
:102CB000070EEA220A0EE926000EEA22EECF14F0F1
:102CC000EFCF15F0AFC3E9FFB0C3EAFFEECF16F0C8
:102CD000EFCF17F01650141831E1175015182EE1E8
:102CE000B1C3E9FFB2C3EAFFEECF14F0EECF15F0A7
:102CF000EECF16F0EFCF17F0CECBE9FFCFCBEAFF48
:102D0000140EEA02F3CFEAFFE902F3CFE9FFF45031
:102D1000EA26670EE926070EEA22EE500001141893
:102D20000BE1EE500001151807E1EE5000011618F6
:102D300003E1EE500001171801E1C8D00B01CE2BC2
:102D4000000ECF235BD70B01CA6B0B01CA51146E67
:102D5000156A040E145C000E155801E3D8D0CACBD6
:102D600045F37CEC00F0030140A7CED0C6EC00F0A8
:102D7000AFC3E9FFB0C3EAFF020EE926000EEA2264
:102D8000EECF14F0EFCF15F014500301121901E04B
:102D9000BBD01550131901E0B7D00A0EE66EE66AF3
:102DA000B1C3E6FFB2C3E6FFCECBE9FFCFCBEAFF6C
:102DB000140EEA02F3CFEAFFE902F3CFE9FFF45081
:102DC000EA26670EE926070EEA22E9CF14F0EACFD9
:102DD00015F0E9CFE6FFEACFE6FF9DECB9F0166EFD
:102DE000060EE15E1650AFC3E9FFB0C3EAFFEECFB7
:102DF00014F0EFCF15F0CECBE9FFCFCBEAFF140EE6
:102E0000EA02F3CFEAFFE902F3CFE9FFF450EA2642
:102E1000670EE926070EEA220A0EE926000EEA22CC
:102E200014C0EEFF15C0EDFFAFC3E9FFB0C3EAFF6A
:102E3000040EE926000EEA22EECF14F0EECF15F0D4
:102E4000EECF16F0EFCF17F0CECBE9FFCFCBEAFFF6
:102E5000140EEA02F3CFEAFFE902F3CFE9FFF450E0
:102E6000EA26670EE926070EEA220C0EE926000E76
:102E7000EA2214C0EEFF15C0EEFF16C0EEFF17C029
:102E8000EEFFAFC3E9FFB0C3EAFF020EE926000E72
:102E9000EA22EECF14F0EFCF15F0CECBE9FFCFCB87
:102EA000EAFF140EEA02F3CFEAFFE902F3CFE9FFEB
:102EB000F450EA26670EE926070EEA22100EE926EC
:102EC000000EEA2214C0EEFF15C0EDFF91ECC1F038
:102ED00007C015F0CECBE9FFCFCBEAFF140EEA0214
:102EE000F3CFEAFFE902F3CFE9FFF450EA26670ED9
:102EF000E926070EEA22120EE926000EEA2206C093
:102F0000EEFF15C0EDFF000C0B01CA2B1ED7000C05
:102F1000B3C3E9FFB4C3EAFFEECFE5F7EDCFE6F7C1
:102F20003AECA2F0F3CF14F0F4CF15F0B3C3E9FFFD
:102F3000B4C3EAFFF3CFEEFF15C0EDFFB3C3E9FF63
:102F4000B4C3EAFF020EE926000EEA22EECFE5F74F
:102F5000EDCFE6F73AECA2F0F3CF14F0F4CF15F092
:102F6000B3C3E9FFB4C3EAFF020EF3CFEBFF030ED6
:102F700015C0EBFFB3C3E9FFB4C3EAFF040EE926B3
:102F8000000EEA22EECFE7F7EECFE8F7EECFE9F753
:102F9000EFCFEAF73FECA2F006C014F007C015F03F
:102FA00008C016F009C017F0B3C3E9FFB4C3EAFFC5
:102FB000040EE926000EEA2206C0EEFF15C0EEFF61
:102FC00016C0EEFF17C0EEFFB3C3E9FFB4C3EAFFBC
:102FD000080EE926000EEA22EECFE7F7EECFE8F77B
:102FE000EECFE9F7EFCFEAF73FECA2F006C014F01E
:102FF00007C015F008C016F009C017F0B3C3E9FF09
:10300000B4C3EAFF080EE926000EEA2206C0EEFF6E
:1030100015C0EEFF16C0EEFF17C0EEFFB3C3E9FF09
:10302000B4C3EAFF0E0EE926000EEA22EECFE5F762
:10303000EDCFE6F73AECA2F0F3CF14F0F4CF15F0B1
:10304000B3C3E9FFB4C3EAFF0E0EF3CFEBFF0F0EDD
:1030500015C0EBFFB3C3E9FFB4C3EAFF100EE926C6
:10306000000EEA22EECFE5F7EDCFE6F73AECA2F05C
:10307000F3CF14F0F4CF15F0B3C3E9FFB4C3EAFF04
:10308000100EF3CFEBFF110E15C0EBFFB3C3E9FF3A
:10309000B4C3EAFF120EE926000EEA22EECFE5F7EE
:1030A000EDCFE6F73AECA2F0F3CF14F0F4CF15F041
:1030B000B3C3E9FFB4C3EAFF120EF3CFEBFF130E65
:1030C00015C0EBFF1200C6EC00F012C342F313C3AD
:1030D00043F329C32FF32AC330F329C331F32AC39F
:1030E00032F32BC333F32CC334F32BC335F32CC38C
:1030F00036F303014051080B02E0040E01D00D0E1F
:1031000003013F6F030140914093409503014099B3
:103110000301409B0301409D0301409F0301419136
:103120000301419303014195030141970301418943
:10313000030124910301249303012497030124999B
:1031400029C30EF32AC30FF3E9EC9EF0F3CF06F385
:10315000F4CF07F3E9EC9EF0F3CF08F3F4CF09F3D3
:10316000030122692369010E0301146F156B12001C
:103170000C0E0801EF6FF06BD7ECBBF048ECA7F03A
:103180000B01E66FF00E0B01E615E840E8403F0B3F
:10319000146E156A140E145E000E155A14C0E6FB68
:1031A0000B01145061E0070E0401EB6FEC6B04019E
:1031B000E96BEA6B4AECA7F00B01E651E607000960
:1031C00053E048ECA7F00B01E76F0B01E8504CE02F
:1031D0000B01E705F1E0020E0B01E75D29E1030EAB
:1031E0000B01E65D41E30B01E86BE96B48ECA7F0EE
:1031F0000B01E76F040E0B01E75D08E148ECA7F057
:103200000B01E96F48ECA7F00B01E86F0B01180EFA
:10321000E85D020EE95928E30B01180ED880E85545
:10322000020EE95521E3E8CBF3FFE9CBF4FF1200EE
:10323000020E0B01E65D18E348ECA7F00B01E76F07
:103240000B01E8500B01E65D0FE30B01E7510401B0
:10325000EB6FEC6B0401E96BEA6B4AECA7F00B0136
:10326000E7510B01E65FA8D7180EF36E020EF46E5D
:103270001200B5C3E9FFB6C3EAFF0D0EE926000E42
:10328000EA22EFCFD8FBB5C3E9FFB6C3EAFF080EC9
:10329000E926000EEA22EECFD9FBEECFDAFBEECF25
:1032A000DBFBEFCFDCFBB5C3E9FFB6C3EAFF040EDF
:1032B000E926000EEA22EECFDDFBEECFDEFBEECFFD
:1032C000DFFBEFCFE0FB030140914093409503010A
:1032D00040B916D087ECC1F006C037F307C038F309
:1032E00008C039F309C03AF3740E03013727350ECD
:1032F00003013823060E03013923000E03013A238C
:1033000003013F51050A47E0010A08E0B7C3E1FBAA
:10331000B8C3E2FB0B01D8A1D6D0D1D00B01D8B5F0
:1033200038D00B01D8A910D0D9CB06F3DACB07F3EC
:10333000DBCB08F3DCCB09F30301AE6B0301040E16
:10334000AD6FB9EC11F025D00B01D8A322D0DDCBA5
:103350000AF3DECB0BF3DFCB0CF3E0CB0DF3030171
:103360000A2B000E03010B2303010C2303010D2381
:10337000FFDEF3CF25F3F4CF26F30301010EAE6F8A
:103380000301120EAD6FB9EC11F00301060E3F6F91
:10339000120063EF18F00B01D8B512000B01D8A989
:1033A00035D0D90EE96E0B0EEA6EEE500301061908
:1033B0000BE1EE500301071907E1EE500301081974
:1033C00003E1EE500301091921E006C3DDFB07C349
:1033D000DEFB08C3DFFB09C3E0FBD9CB06F3DACB86
:1033E00007F3DBCB08F3DCCB09F30301010EAE6F6F
:1033F0000301040EAD6FB9EC11F0DDCB06F3DECBAB
:1034000007F3DFCB08F3E0CB09F312000B01D8A3DD
:1034100023EF22F0DDCB0AF3DECB0BF3DFCB0CF393
:10342000E0CB0DF303010A2B000E03010B23030174
:103430000C2303010D23B5C3E9FFB6C3EAFF0E0E4B
:10344000E926000EEA22EECF14F3EDCF15F390DE5D
:10345000F3CF25F3F4CF26F30B01D8A924D0030131
:10346000010EAE6F0301100EAD6FB9EC11F0030148
:10347000070E3F6F87ECC1F006C037F307C038F383
:1034800008C039F309C03AF3740E03013727350E2B
:1034900003013823060E03013923000E03013A23EA
:1034A0000301409912000301010EAE6F0301120ED9
:1034B000AD6FB9EC11F00301060E3F6F12000B0166
:1034C000E12B000EE2230B01D8A304D00B01E12B6A
:1034D000000EE223030135510301335D0301365130
:1034E000030134591AE303012B5103012D5D146EBE
:1034F0002E5103012C55156E030135510301335D27
:10350000166E345103013655176E0B011650145CBC
:10351000D66F17501558D76F11D0030133510301DF
:10352000355D0B01D66F03013451030136590B0190
:10353000D76F0B01010ED65F000ED75B0A0EE96E46
:10354000030EEA6EEE500B01DD5D0B01D06FEE5005
:103550000B01DE590B01D16FEE500B01DF590B014E
:10356000D26FEE500B01E0590B01D36FD0CBD4FBDF
:10357000D1CBD5FB0B01E36B0B01E151E21101E172
:1035800090D00B01D651D71101E1ABD00B01800EC9
:10359000D31513E1D6CB14F0D7CB15F0166A176A02
:1035A00014500B01D05D15500B01D15916500B0171
:1035B000D25917500B01D35943E3E1CB14F0E2CBBE
:1035C00015F0166A176AD00EE96E0B0EEA6EEE5011
:1035D0001426EE501522EE501622EE501722173404
:1035E000000E171809E6D880000E1454000E15546A
:1035F000000E1654000E175426E20B01E1510B0188
:10360000D65D186ED7510B01E255196E1A6A1B6A06
:1036100019AE02D01A681B681B500B01D319E8AE13
:1036200002D0D3350CD00B01D051185C0B01D15115
:1036300019580B01D2511A580B01D3511B5803E3EF
:103640000B01010EE36FD6CB14F0D7CB15F0166A41
:10365000176A0B01D3511718E8AE02D017340CD0FB
:1036600014500B01D05D15500B01D15916500B01B0
:10367000D25917500B01D35934E20B010B01D4512D
:103680000B01E125186E0B010B01D5510B01E22155
:10369000196EE83426E218500008000E195421E291
:1036A0001DD00B01D051D111D211D31117E00B0154
:1036B000800ED31516E1D6CB14F0D7CB15F0166AD1
:1036C000176A14500B01D05D15500B01D1591650DB
:1036D0000B01D25917500B01D35903E20B01010E14
:1036E000E36F0B01E3510CE10B01D8B523EF22F09E
:1036F0000301010EAE6F0301100EAD6FB9EF11F0B3
:10370000060E0B01D81502E063EF18F00B01D8A9E3
:10371000120003013F510C0A01E1F5D20B0A43E00C
:103720000F0A41E0010A3FE0020A3DE0010A3BE0E6
:103730000C0A01E001D3D90EE96E0B0EEA6EEE50D1
:10374000030106190BE1EE500301071907E1EE50E2
:103750000301081903E1EE500301091921E006C332
:10376000DDFB07C3DEFB08C3DFFB09C3E0FBD9CBEE
:1037700006F3DACB07F3DBCB08F3DCCB09F3030169
:10378000010EAE6F0301040EAD6FB9EC11F0DDCB8D
:1037900006F3DECB07F3DFCB08F3E0CB09F312002F
:1037A0000301070E3F6F03010E5103012F5D0B0153
:1037B000CE6F03010F51030130590B01CF6F0B0185
:1037C000800ECF150FE00301295103012B5D146E0C
:1037D0002C5103012A55156E14500B01CE2715509C
:1037E0000B01CF23CECB14F0CFCB15F0166A176A9E
:1037F000060EE96E030EEA6EEE5014240B01CA6F3A
:10380000EE5015200B01CB6FEE5016200B01CC6F44
:10381000EE5017200B01CD6FD90EE96E0B0EEA6E3C
:10382000EE500B01CA5D146EEE500B01CB59156EB4
:10383000EE500B01CC59166EEE500B01CD59176EA0
:103840000001800E171407E00301AE6B0301100E98
:10385000AD6FB9EF11F00301315103010E5D146E2C
:103860000F5103013255156E166A176A15AE02D054
:1038700016681768060EE96E030EEA6E1450EE5CC9
:103880000B01CA6F1550EE580B01CB6F1650EE5856
:103890000B01CC6F1750EE580B01CD6F0301315166
:1038A00003010E5D0301325103010F5917E20301B9
:1038B000295103012B5D146E2C5103012A55156EFD
:1038C000166A176A14500B01CA5F15500B01CB5BC7
:1038D00016500B01CC5B17500B01CD5BCA0EE96E85
:1038E0000B0EEA6EEE500B01D95D0B01CA6FEE5064
:1038F0000B01DA590B01CB6FEE500B01DB590B01B9
:10390000CC6FEE500B01DC590B01CD6F0B01E8348D
:10391000000ECD1909E6D880000ECA55000ECB5511
:10392000000ECC55000ECD5501E3ADD00301295159
:1039300003012B5D146E2C5103012A55156E166A76
:10394000176A0B01CA51145C0B01CB5115580B01BE
:10395000CC5116580B01CD51175801E294D00301F8
:103960002497030124990301419131C3CEFB32C353
:10397000CFFB0B01CA51030131270B01CB510301CE
:1039800032230B01CE5103010E5D0B01CF51030118
:103990000F5912E30301315103010E5D030132514E
:1039A00003010F593FE203010E510301315D146E13
:1039B000325103010F5526D00301295103012B5D1C
:1039C000146E2C5103012A55156E030103010E518B
:1039D00014240B01CE6F030103010F5115200B01BD
:1039E000CF6F030131510B01CE5D030132510B0149
:1039F000CF5918E20B01CE510301315D146E3251E3
:103A00000B01CF55156E000114500301062700016C
:103A1000155003010723000E0823092331C30EF3B9
:103A200032C30FF303012B510301315D03012C510C
:103A3000030132590FE30301295103012B5D146E79
:103A40002C5103012A55156E14500301315F155096
:103A50000301325B03012B5103010E5D03012C5165
:103A600003010F5969E30301295103012B5D146E12
:103A70002C5103012A55156E145003010E5F155089
:103A800003010F5B59D003010E510301311904E109
:103A900003010F51030132194FE0030124A74AD05B
:103AA000030124A945D00301315103010E5D146EB9
:103AB0000F5103013255156E166A176A15AE02D002
:103AC0001668176814500301065F15500301075B61
:103AD00016500301085B17500301095B03013151C4
:103AE00003010E5D0301325103010F591BE2030173
:103AF000295103012B5D146E2C5103012A55156EBB
:103B0000166A176A15AE02D01668176814500301BA
:103B1000065F15500301075B16500301085B175041
:103B20000301095B31C30EF332C30FF30301418577
:103B3000030124890301248703012F510301311953
:103B40003FE103013051030132193AE1030141B76A
:103B500019D087ECC1F006C037F307C038F308C0AE
:103B600039F309C03AF3740E03013727350E030108
:103B70003823060E03013923000E03013A23030103
:103B800040991ED0060EE96E030EEA6EEE500B0150
:103B9000D91916E1EE500B01DA1912E1EE500B01C2
:103BA000DB190EE1EE500B01DC190AE109E103011A
:103BB00003012451010B04E00301409903014197E3
:103BC000D90EE96E0B0EEA6EEE500301065D146E1F
:103BD000EE5003010759156EEE5003010859166E99
:103BE000EE5003010959176EB5C3E9FFB6C3EAFFEA
:103BF0000E0EE926000EEA220B011450EE5CE46F73
:103C00001550EE58E56F03011451151106E10B0133
:103C1000E451E51102E003014183E4CB14F3E5CB69
:103C200015F3080E03013F5D39E1060EE96E030E40
:103C3000EA6EEE500B01D91901E07ED0EE500B0177
:103C4000DA1901E079D0EE500B01DB1901E074D0F4
:103C5000EE500B01DC1970E16FE103010301245107
:103C6000010B6AE087ECC1F006C037F307C038F3F8
:103C700008C039F309C03AF3BA0E030137271A0E08
:103C800003013823030E03013923000E03013A23F5
:103C9000030140890301090E3F6F4ED0090E030155
:103CA0003F5D14E10B01D8B147D0D9CB06F3DACB95
:103CB00007F3DBCB08F3DCCB09F30301AE6B0301A5
:103CC000140EAD6FB9EC11F063EF18F00A0E03019A
:103CD0003F5D32E1060EE96E030EEA6EEE500B0117
:103CE000D91910E1EE500B01DA190CE1EE500B017D
:103CF000DB1908E1EE500B01DC1904E101E0A3D36C
:103D000063EC18F01200060EE96E030EEA6EEE5038
:103D10000B01D91910E1EE500B01DA190CE1EE504C
:103D20000B01DB1908E1EE500B01DC1904E101E0A5
:103D30008AD363EC18F012000B01D8BB12000B0EF3
:103D400003013F5D01E112000A0E03013F5D01E145
:103D500012000C0E03013F5D01E112000301B75197
:103D6000B81101E1BFD20B01D53504E2D4510008EE
:103D7000000ED55501E217D1B5C3E9FFB6C3EAFF7E
:103D80000C0EE926000EEA22EF50F00BE842E84262
:103D9000E842E842040DF350146E156A0B01D45149
:103DA000F35C0801EF6F0B01D55115580801F06F56
:103DB000D7ECBBF00B01D4510301B7270B01D55150
:103DC0000301B8230301B7510B01D65D0301B851BC
:103DD0000B01D75904E2D6CBB7F3D7CBB8F3030125
:103DE000B75103010A270301B85103010B23000E49
:103DF0000C230D230301030133510301B725146E76
:103E00000301030134510301B821156E030114505D
:103E10002D5D15502E5952E20301335103012D5DE2
:103E20000B01CE6F0301345103012E590B01CF6FEB
:103E3000010E0B01CE27000E0B01CF23CECBC5F315
:103E4000CFCBC6F30301C46B0301C269C36944C38A
:103E5000C1F333C3BFF334C3C0F366EC23F00B01EB
:103E6000CE510301B75D0301C56F0B01CF510301B3
:103E7000B8590301C66F0301C46B0301C269C3696A
:103E800044C3C1F32BC3BFF32CC3C0F366EC23F0D0
:103E90000B01CE510301B75D146EB8510B01CF5524
:103EA000156E030103012B5114240301336F030129
:103EB00003012C5115200301346F19D0B7C3C5F38A
:103EC000B8C3C6F30301C46B0301C269C36944C329
:103ED000C1F333C3BFF334C3C0F366EC23F0030173
:103EE000B751030133270301B85103013423030100
:103EF000221D01E1231D01E1F5D10301B7510301A9
:103F0000225F0301B8510301235B03010301165132
:103F1000030122250B01CE6F030103011751030199
:103F200023210B01CF6F0B01800ECF1538E1030168
:103F3000233504E222510008000E235501E2D2D1BC
:103F40000B01CE5103010A270B01CF5103010B23B3
:103F5000000E0C230D230B01CE51030133270B015F
:103F6000CF51030134230301335103012D5D0301BC
:103F7000345103012E5913E203012B5103012D5D2E
:103F8000146E2E5103012C55156E010E1426000ED1
:103F9000152214500301335F15500301345B0301F4
:103FA000226923699FD10B01D53501E39BD1D451FF
:103FB0000008000ED55501E395D103010301B75167
:103FC0000B01D425146E03010301B8510B01D52157
:103FD000156E0B011450D65D1550D7590CE20B012C
:103FE000D4510B01D65D0301B76F0B01D5510B0105
:103FF000D7590301B86FB5C3E9FFB6C3EAFF0C0E8A
:10400000E926000EEA22EF50F00BE842E842E842CF
:10401000E842040DF3500801EF6FF06BD7ECBBF0F2
:104020000301030133510B01D425166E0301030173
:1040300034510B01D521176E16500301B725146EAC
:1040400017500301B821156E030114502D5D155052
:104050002E5901E378D00301335103012D5D146E15
:104060002E5103013455156E010E1426000E152233
:104070000B01D451145C0B01CE6F0B01D5511558B7
:104080000B01CF6F0B01800ECF1532E1CECBC5F304
:10409000CFCBC6F30301C46B0301C269C36944C338
:1040A000C1F30301030133510B01D4250301BF6F99
:1040B0000301030134510B01D5210301C06F06DB5D
:1040C0000B01CE510301B75D0301C56F0B01CF5149
:1040D0000301B8590301C66F0301C46B0301C26930
:1040E000C36944C3C1F32BC3BFF32CC3C0F344D093
:1040F000B7C3C5F3B8C3C6F30301C46B0301C269F8
:10410000C36944C3C1F30301030133510B01D42537
:10411000146E0301030134510B01D521156E030107
:104120002B5103012D5D166E2E5103012C55176E78
:10413000010E1626000E172203011650145CBF6FE5
:104140001750155818D0B7C3C5F3B8C3C6F3030149
:10415000C46B0301C269C36944C3C1F30301030112
:1041600033510B01D4250301BF6F03010301345107
:104170000B01D5210301C06FA9DA0301221D0BE158
:10418000231D09E1D4CB22F3D5CB23F3B7C316F318
:10419000B8C317F3A7D0030122510B01D45D03016B
:1041A00023510B01D5594FE20B010B01D4510301EF
:1041B000B725146E0B010B01D5510301B821156E03
:1041C00003010301225103011625166E03010301A9
:1041D000235103011721176E1450165C1550175800
:1041E00012E30B010B01D4510301B725186E0B012B
:1041F0000B01D5510301B821196E03012251185C3E
:104200002351195805E2B7C316F3B8C317F316D0F4
:1042100003010301225103011625146E030103015A
:10422000235103011721156E0B01D451145C0301B6
:10423000166F0B01D55115580301176FD4CB22F31C
:10424000D5CB23F34FD00B010B01D4510301B7257C
:10425000146E0B010B01D5510301B821156E03013A
:104260000301225103011625166E03010301235198
:1042700003011721176E1450165C1550175832E2BF
:1042800003010301225103011625146E03010301EA
:10429000235103011721156E0B01D451145CD55124
:1042A000155820E30B010B01D4510301B725186EFB
:1042B0000B010B01D5510301B821196E03012251E5
:1042C000185C166E23511958176E03011651165CAF
:1042D000146E17511758156E1450030116271550F8
:1042E000030117230B01E151E21129E0070E03013D
:1042F0003F5D04E033C335F334C336F3030140AF0D
:104300000BD00301010EAE6F0301100EAD6FB9ECBF
:1043100011F0C6EC00F013D00301408F030140BD43
:104320000ED00301408D91ECC1F006C03DF307C0F3
:104330003EF30F0E03013D27000E03013E230B0148
:10434000D8A181D00AC314F00BC315F00CC316F02A
:104350000DC317F0142A000E152216221722E1CBE6
:1043600018F0E2CB19F01A6A1B6ADD0EE96E0B0E2B
:10437000EA6EEE501826EE501922EE501A22EE5038
:104380001B22145018185FE1155019185CE11650E3
:104390001A1859E117501B1856E155E103010A2B71
:1043A000000E0B230C230D2303013F51090A3AE0B1
:1043B000010A1FE00F0A0DE0010A3DE103010C0EA6
:1043C0003F6F0301010EAE6F0301110EAD6FB9EF28
:1043D00011F003010B0E3F6F91ECC1F006C03DF3ED
:1043E00007C03EF31F0E03013D27000E03013E23CD
:1043F00022D0060EE96E030EEA6EEE500B01D919BB
:104400000DE1EE500B01DA1909E1EE500B01DB1959
:1044100005E1EE500B01DC1901E104E003010A0E95
:104420003F6F09D00301AE6B0301100EAD6FB9EC05
:1044300011F063EF18F00301010EAE6F0301100ECF
:10444000AD6FB9EC11F01200B9C345F37CEC00F08C
:104450000301BA51BB1104E1010E0301BA6FBB6B3A
:104460000301295103012D5D0B01A56F03012A51A1
:1044700003012E590B01A66F0B01010EA55F000E63
:10448000A65B03010301BA510301BC25146E0301AD
:104490000301BB510301BD21156E0B011450A55D35
:1044A0001550A65901E2000CC6EC00F0030E030102
:1044B000BE1503E1030E0301BE13BCC3A9FBBDC3BC
:1044C000AAFB03010301BA510301BC25146E0301C9
:1044D0000301BB510301BD21156E14500B01A55FF3
:1044E00015500B01A65B0301BEA317D00301BEA1AB
:1044F0000CD0A5CB14F0A6CB15F0D8901532143201
:1045000014500B01A927155006D00B01A5510B0122
:10451000A9270B01A6510B01AA230301030129516D
:104520000B01A9250B01A56F030103012A510B0102
:10453000AA210B01A66F010E0B01A527000E0B018E
:10454000A62333C3A7FB34C3A8FB0301221D01E14B
:10455000231D2EE003010301225103011625146ED1
:1045600003010301235103011721156E14500B01A0
:10457000A72715500B01A8230B01A75103012D5D9F
:104580000B01A85103012E5913E203012B51030122
:104590002D5D146E2E5103012C55156E010E14263F
:1045A000000E152214500B01A75F15500B01A85BDC
:1045B0000B01A7510301355D0B01A85103013659C9
:1045C0000DE20B01A5510301355D0B01A65103015D
:1045D000365921E20301BEA516D0000C0301355166
:1045E0000B01A75D030136510B01A8590CE20B0129
:1045F000A55103012B5D0B01A65103012C590BE2C0
:104600000301BEB5000CA5CB35F3A6CB36F3A5CB85
:1046100033F3A6CB34F3030135510B01A75D03013E
:1046200036510B01A85935E2040E0301BE1531E0E5
:1046300003012B510B01A75D0301C56F03012C5131
:104640000B01A8590301C66F44C3C4F32BC3C2F3C3
:104650002CC3C3F344C3C1F3A5CBBFF3A6CBC0F3B4
:1046600035D8030135510301335D03013651030190
:1046700034590FE20B01A55103012B5D146E2C512F
:104680000B01A655156E14500301335F155003013D
:10469000345BA5CB2BF3A6CB2CF329C30EF32AC393
:1046A0000FF329C331F32AC332F329C32FF32AC3EB
:1046B00030F3070E03013F5D08E10301010EAE6F09
:1046C0000301100EAD6FB9EC11F0010C0301C451E0
:1046D00031E0010A01E012000301C15116E0010AB4
:1046E00001E01200C5C3E6FFC6C3E6FFC2C3E6FF92
:1046F000C3C3E6FFBFC3E6FFC0C3E6FF9DECB9F04E
:10470000146E060EE15E145012000301BF1D01E19C
:10471000C01D06E0BFC3D9F4C0C3DAF476ECA5F03F
:10472000C5C3F0F4C6C3F1F4C2C3EEF4C3C3EFF4DF
:1047300080EFA7F00301C15118E0010A01E0120067
:104740000301C21D01E1C31D06E0C2C3DBF4C3C304
:10475000DCF483ECA5F0C5C3EBF4C6C3ECF4BFC333
:10476000E9F4C0C3EAF44AEFA7F0C5C3E7F4C6C34F
:10477000E8F4C2C3E5F4C3C3E6F4BFC3E3F4C0C3C3
:10478000E4F464ECA6F042ECA7F00009FCE01200AF
:104790000301C95118E0010A01E01200CDC3E6FF90
:1047A000CEC3E6FFCAC3E6FFCBC3E6FFCCC3E6FF3A
:1047B000C7C3E6FFC8C3E6FFC8ECB9F0146E070E26
:1047C000E15E145012000301C71D01E1C81D06E09F
:1047D000C7C3D9F4C8C3DAF476ECA5F0100E0B0108
:1047E000B56FB66B0301CD51CE1143E00B01B5514E
:1047F0000301CD5D0B01B6510301CE5904E2CDC3D7
:10480000B5FBCEC3B6FBB5CBE6FFB6CBE6FFCAC35E
:10481000E6FFCBC3E6FFCCC3E6FFA50EE66E0B0EAC
:10482000E66EC8ECB9F0146E070EE15E1450B5CB1D
:10483000F0F4B6CBF1F40401A50EEE6F0B0EEF6FA2
:1048400080ECA7F0B5CB14F0B6CB15F0166A145077
:104850000301CA2715500301CB2316500301CC23B3
:104860000B01B5510301CD5F0B01B6510301CE5BC6
:04487000B9D71200A2
:0C4874000501046B0201B669B76B02017C
:10488000B46BB56BA10E0201B26FB36BACEC99F0D7
:104890000901006F1200FF0E0901005D04E000C96C
:1048A000BAF246EC9AF00501046B0201B669B76BE7
:1048B0000201B46BB56B2BC5B2F22CC5B3F2ACECF4
:1048C00099F00901006F12000C01010ED06FFF0E6C
:1048D0000901005D01E1010C00C9CFF2BDEC9CF0C3
:1048E000F3CF14F0F4CF15F0F350F41001E1010C04
:1048F00000C985F5AEEC3DF00C01C36B0501C30E9C
:10490000496F0C0E4A6F0501B30E476F0C0E486FCE
:104910000501C40E456F0C0E466FC5EC29F00C0165
:10492000CA6F030E0C01CD5D0CE00C01CA5140E0D2
:104930000501C40E4B6F0C0E4C6FA6EC2AF000095B
:1049400037E00501049100013D0ECD6F650ECE6F7D
:10495000010ECF6F6FEC75F00501056FFF0E0501BD
:10496000055D02E005010481030E0C01CD5D10E040
:10497000C3CC51F50501B30E4F6F0C0E506F0501FE
:10498000C40E4D6F0C0E4E6F1AEC2BF00C01D06F55
:10499000050104A104D005C5D2F05BEC77F00C0151
:1049A000D05106E00E01005102E1DDEC9BF0010C5C
:1049B00038EC9DF0010C2DC5C1FB2EC5C2FB2FC5E7
:1049C000E6FF30C5E6FF120EE66E050EE66E3BEC26
:1049D000BAF0E552E552E552E55231C522F532C54D
:1049E00023F533C524F534C526F535C527F536C579
:1049F00028F537C529F5C1CBF8F2C2CBF9F2AFEFF4
:104A0000B5F038C5AFFB39C5B0FB0201A90EFC6F8C
:104A10000B0EFD6F38C5FAF239C5FBF200ECB6F0AB
:104A2000000923E0AFCBE9FFB0CBEAFFEECFA5FB57
:104A3000EECFA6FBEECFA7FBEFCFA8FB3AC5B6F2B1
:104A40003BC5B7F20201A50EB46F0B0EB56F0201A4
:104A5000FE0EB26FB369ACEC99F00501256FFF0E45
:104A60000501255D01E1000C010C000C090E3DC59E
:104A7000E9FF3EC5EAFFEF6E05013C51060A47E03B
:104A8000020A38E0060A2AE0010A1CE0020A0EE0E7
:104A9000010A47E13DC5E9FF3EC5EAFFEF04EA6AC6
:104AA000340FE96E090EEA22010E2FD03DC5E9FF51
:104AB0003EC5EAFFEF04EA6A340FE96E090EEA2206
:104AC000020E23D03DC5E9FF3EC5EAFFEF04EA6AC6
:104AD000340FE96E090EEA22040E17D03DC5E9FF36
:104AE0003EC5EAFFEF04EA6A340FE96E090EEA22D6
:104AF000030E0BD03DC5E9FF3EC5EAFFEF04EA6AAD
:104B0000340FE96E090EEA22050EEF6E0DD0090E84
:104B10003DC5E9FF3EC5EAFFEF6E3D0E146E090E7E
:104B200006D0F36AF46A1200340E146E090E14C033
:104B3000F3FFF46E12000B01BB6BBC6B0B012B0E71
:104B4000D76F0B01060ED86F0B01010ED96F0B0149
:104B5000060EDA6F0B01030EDB6F0B01010EDC6F2B
:104B60000B01DD6F0B01040EDE6F0B01010EDF6F19
:104B70000B012B0EE06F0B01060EE16F0B01010E16
:104B8000E26F0B01020EE36F0B01010EE46F0B01EC
:104B9000E56F0B01030EE66F0B01E76BE86B0B0192
:104BA000E96BEA6B00013D0ECD6F650ECE6F010E15
:104BB000CF6F6FEC75F00501056FFF0E0501055D08
:104BC00001E1CDD209014A514B1101E0C8D10901DF
:104BD0004C514D1101E0C3D125C585F5AEEC3DF03A
:104BE00000C552F901C553F922C5A7FB0B01120EEE
:104BF000A56F050EA66F0501300E866FC0EC3DF067
:104C00000501820E866FC0EC3DF000C54AF901C572
:104C10004BF90501866BC0EC3DF00501866BC0ECDD
:104C20003DF00501020E866FC0EC3DF00501010E5E
:104C3000866FC0EC3DF00501010E866FC0EC3DF0C3
:104C40000501040E866FC0EC3DF0A7CB86F5C0ECE5
:104C50003DF00B01A751A70700090BE00B01A5CB05
:104C6000E9FFA6CBEAFFA52B000EA623EFCF86F522
:104C7000EED70501A70E866FC0EC3DF00501820E50
:104C8000866FC0EC3DF000C54CF901C54DF905013A
:104C9000866BC0EC3DF00501866BC0EC3DF0050174
:104CA000020E866FC0EC3DF00501040E866FC0EC6D
:104CB0003DF00501866BC0EC3DF00501866BC0EC54
:104CC0003DF00501866BC0EC3DF00501010E866FDD
:104CD000C0EC3DF00501020E866FC0EC3DF0050111
:104CE000010E866FC0EC3DF00501866BC0EC3DF017
:104CF0000501020E866FC0EC3DF00501010E866FC6
:104D0000C0EC3DF00501866BC0EC3DF00501300EB6
:104D1000866FC0EC3DF00501820E866FC0EC3DF061
:104D200000C54EF901C54FF90501866BC0EC3DF099
:104D30000501866BC0EC3DF00501300E866FC0ECBE
:104D40003DF000C550F901C551F90501866BC0EC75
:104D50003DF00501060E866FC0EC3DF00B01070E1D
:104D6000B76F0B01E8280501866FC0EC3DF00B0121
:104D7000E00EB96F0B0EBA6F0B01B751B707000900
:104D80000DE00B01B9CBE9FFBACBEAFFB92B000E5E
:104D9000BA23EFCF86F5C0EC3DF0EED70501866B68
:104DA000C0EC3DF00501430E866FC0EC3DF00501FF
:104DB000040E866FC0EC3DF029C586F5C0EC3DF0D1
:104DC00028C586F5C0EC3DF027C586F5C0EC3DF062
:104DD00026C586F5C0EC3DF000C5BBFB01C5BCFB9C
:104DE00050C900F551C901F50B01100EB76FE8CF9E
:104DF00086F5C0EC3DF0BBCB00F5BCCB01F5020E57
:104E00000B01B725146E0001E85009014627000E7A
:104E10004723482349230501300E866FC0EC3DF03F
:104E200000C550F901C551F90501866BC0EC3DF094
:104E30000501060E866FC0EC3DF00B01090EB76F41
:104E40000B01E8280501866FC0EC3DF00B01D70E81
:104E5000B96F0B0EBA6F0B01B751B70700090DE020
:104E60000B01B9CBE9FFBACBEAFFB92B000EBA238D
:104E7000EFCF86F5C0EC3DF0EED70501866BC0ECB8
:104E80003DF00501B70E8C6F0B0E8D6F0501A80E5E
:104E90008A6F0B0E8B6F0501BD0E886F0B0E896F2D
:104EA0002AC587F5E3EC3DF0000901E154D10B017F
:104EB000C2AD51D10001E36BC7CBDFF0C8CBE0F04E
:104EC000C9CBE1F0CACBE2F005C5DEF003EC79F026
:104ED0000501060E866FC0EC3DF00001A70ED46FF1
:104EE0000B0ED56F05C5D3F07DEC77F0A7CBB8FBE3
:104EF000A7CB86F5C0EC3DF00B01A751A707000931
:104F00000CE00001EB0ED46F0B0ED56F05C5D3F08E
:104F10007DEC77F0EBCB86F5EDD700C5BBFB01C58B
:104F2000BCFB50C900F551C901F50E0E0B01B825A7
:104F30000B01B76FE8CF86F5C0EC3DF0BBCB00F5B9
:104F4000BCCB01F5020E0B01B725146E0001E85031
:104F500009014627000E47234823492304D050C99E
:104F600000F551C901F50501300E866FC0EC3DF02A
:104F70000501820E866FC0EC3DF000C550F901C5F9
:104F800051F90501866BC0EC3DF00501866BC0EC64
:104F90003DF0060E0E01025D01E195D00501B70E50
:104FA0003D6F0B0E3E6F02CE3CF560DDF3CFB9FBDB
:104FB000F4CFBAFB0B01F350F41001E1CCD00501A2
:104FC000060E866FC0EC3DF00B01B7290501866F18
:104FD000C0EC3DF00B01B751B70700090BE00B0126
:104FE000B9CBE9FFBACBEAFFB92B000EBA23EFCF5A
:104FF00086F5EED70501866BC0EC3DF00501B70ED6
:105000008C6F0B0E8D6F0501A80E8A6F0B0E8B6FC8
:105010000501BD0E886F0B0E896F23C587F5E3EC84
:105020003DF0000901E197D00B01C2AD94D0000121
:10503000E36BC7CBDFF0C8CBE0F0C9CBE1F0CACB64
:10504000E2F005C5DEF003EC79F00501060E866F8F
:10505000C0EC3DF00001A70ED46F0B0ED56F05C557
:10506000D3F07DEC77F0A7CBB8FBA7CB86F5C0ECEF
:105070003DF00B01A751A70700090CE00001EC0E61
:10508000D46F0B0ED56F05C5D3F07DEC77F0ECCB6C
:1050900086F5EDD700C5BBFB01C5BCFB50C900F5CB
:1050A00051C901F50E0E0B01B8250B01E76FE86B36
:1050B000E8CB86F5C0EC3DF0E7CB86F5C0EC3DF0E3
:1050C000E7CBA7FBC2D00501B70E8C6F0B0E8D6F1F
:1050D0000501A80E8A6F0B0E8B6F0501BD0E886F40
:1050E0000B0E896F3FC587F5E3EC3DF0000933E017
:1050F0000B01A80EB96F0B0EBA6F0501060E866F75
:10510000C0EC3DF00B01B7290501866FC0EC3DF006
:10511000B7CBA7FB0B01A751A70700090DE00B01B7
:10512000B9CBE9FFBACBEAFFB92B000EBA23EFCF18
:1051300086F5C0EC3DF0EED744C586F5C0EC3DF0F9
:105140000501D50E9B6F0B0E9C6FC3CB9AF5F5EC4A
:105150003FF0000909E105C5D2F05BEC77F025C509
:10516000BAF246EC9AF0000CD5CB86F5C0EC3DF0D7
:10517000FF0E0B01D65D3AE140C5EDFB41C5EEFBEC
:105180000B01EF6BF06B40C5E6FF41C5E6FF75EC28
:10519000BAF0E552E552F3CFD6FBF3CFA7FBF3CF3E
:1051A00086F5C0EC3DF00B01EF6BF06B0B01A751E6
:1051B0000B01F0AF02D0D89003D0EF5D000EF05994
:1051C0002AE20B010B01ED510B01EF25E96E0B01FA
:1051D0000B01EE510B01F021EA6EEFCF86F5C0EC2A
:1051E0003DF00B01EF2B000EF023E0D7D6CBA7FB51
:1051F000D6CB86F5C0EC3DF00B01A751A7070009FF
:105200000AE00B01A751EA6A400FE96E050EEA2297
:10521000EFCF86F5EFD70B01D629010F0B01B7258C
:10522000020F010F0B01E76FE86B00C5BBFB01C567
:10523000BCFB50C900F551C901F5E8CB86F5C0ECBF
:105240003DF0E7CB86F5C0EC3DF0BBCB00F5BCCB29
:1052500001F5BBCB50F9BCCB51F9040E0B01156A1B
:10526000E725146EE8511522000114500901462764
:105270000001155009014723000E482349230E0160
:10528000040505E105C5D2F05BEC77F0010C46C9D9
:10529000E7FB47C9E8FB4EC900F54FC901F547C90F
:1052A00086F5C0EC3DF0E7CB86F5C0EC3DF046C995
:1052B00014F047C915F048C916F049C917F0040E93
:1052C0001426000E1522162217220C0E1426000E8C
:1052D00015221622172214C0E7FB15C0E8FB4CC9A3
:1052E00000F54DC901F515C086F5C0EC3DF0E7CBE2
:1052F00086F5C0EC3DF0040E0B01156AE725146E2F
:10530000E8511522050122510B011424E76F000E0C
:105310001520E86F020E0B01E727000E0B01E823B2
:10532000030E0B01E727000E0B01E8234AC900F525
:105330004BC901F5E8CB86F5C0EC3DF0E7CB86F52F
:10534000C0EC3DF052C900F553C901F509014A6BA3
:105350004B6B09014C6B4D6B09014E6B4F6B090197
:10536000506B516B0901526B536B0901466B476BD4
:10537000486B496B05C5D2F05BEC77F0DDEC9BF038
:1053800025C5BAF246EC9AF0010C0B01A96B0B0192
:10539000B56BB66B0B01AA0EB76F0B0EB86FCFECE7
:1053A0003DF00B01AA6F0B01B52B000E0B01B623CC
:1053B000300E0B01AA5D01E0000C0501A50E7D6F0A
:1053C0000B0E7E6F1AEC3DF00B01B36FB46B0B014B
:1053D000E850B41101E1000C0B01010EB3190AE110
:1053E000B45108E10B01B52B000E0B01B623A5CB80
:1053F000ABFB27D00B01020EB3190EE1B4510CE147
:10540000020E0B01B527000E0B01B6230B01810E16
:10541000AB6FA5CBACFB15D00B01030EB31910E19C
:10542000B4510EE1030E0B01B527000E0B01B6239C
:105430000B01820EAB6FA6CBACFBA5CBADFB01D0B5
:10544000000CA5CBB1FBA6CBB2FB0501A50E796F75
:105450000B0E7A6FB7EC3CF0000901E1000CAA0ECC
:105460000B01B525E96E0B0E0B01B621EA6E020E9B
:10547000EF6E45C5E9FF46C5EAFF090EA5CBEBFF78
:105480000B01A55108E00B01A50505E0030E0B017A
:10549000A55D01E0000C010E0B01EA6AB525E96E7D
:1054A000B651EA22AA0EE9260B0EEA22010EEF6E91
:1054B000020E0B01EA6AB525E96EB651EA22AA0E80
:1054C000E9260B0EEA22A5CBEFFF0B01A55103E065
:1054D0000B01A50538E149C577F54AC578F547C5FB
:1054E00075F548C576F589EC3CF0000901E1000C42
:1054F0000501A90E7B6F0B0E7C6FF9EC3CF00009E7
:1055000001E1000C45C5E9FF46C5EAFF060EA9CB3F
:10551000EBFF45C5E9FF46C5EAFF090EEB50000960
:1055200009E145C5E9FF46C5EAFF060EEB50A508AF
:1055300001E1000C47C587FB48C588FB78EC58F0B3
:10554000030801E1000C0B01A95112000501A50E91
:10555000796F0B0E7A6FB7EC3CF000091DE04BC57C
:10556000E9FF4CC5EAFFA5CBEEFFA6CBEEFFA7CB2C
:10557000EEFFA8CBEEFF4BC5E9FF4CC5EAFF090ED5
:10558000EB5000090AE04BC5E9FF4CC5EAFF090EE4
:10559000EB5001081BE101D0000C4BC5E9FF4CC5E5
:1055A000EAFF060EEB50A50811E00501A50E796F84
:1055B0000B0E7A6FB7EC3CF0000901E1000C05011D
:1055C000A50E796F0B0E7A6FB7EF3CF04BC5E9FF74
:1055D0004CC5EAFF090EEB5001082BE14BC5E9FF72
:1055E0004CC5EAFF060EEB50A50823E10501A50E08
:1055F000796F0B0E7A6FB7EC3CF0000918E04BC5E1
:10560000E9FF4CC5EAFF040EA5CBEBFF0501A50E93
:10561000796F0B0E7A6FB7EC3CF0000909E04BC5CF
:10562000E9FF4CC5EAFF050EA5CBEBFF010C000C12
:10563000000C000C0B01A56B0B01A66B0B01B76BEB
:105640000B01B96B0B01BA6B0B01BB6B0B01BC6B94
:105650000B01BD6B0B01C06B0B01C16B0B01C26B6E
:105660000B01C36B0B01C46B0B01C56B0B01CC6B46
:10567000CD6B0B010B01D06BD16B0B01D26BD36BDC
:105680000B01D46BD56B0B01D66BD76B0B01D86BB1
:10569000D96B0B01DA6BDB6B0B01DC6BDD6B0B0188
:1056A000DE6BDF6B0B01E06BE16B0B01E26BE36B1D
:1056B0000B01E46BE56B05010E6B0F6B05010C6BC9
:1056C0000D6B05010A6B0B6B0501106B116B4FC560
:1056D000CAFB50C5CBFB00C5CEFB01C5CFFB0B0100
:1056E000B66B0901546B556B0501086B0B01FF6B21
:1056F000006B090156510B0A02E134EF32F0010A46
:1057000001E1E3D3030A01E19DD2010A01E1E5D100
:105710000F0A01E17FD1010A01E161D1030A01E130
:1057200009D1010A01E1F2D0070A01E1D5D0010A4D
:1057300001E1BED0030A5EE0010A02E012EF34F09C
:105740000B01E46BE56B0501300E866FC0EC3DF09C
:105750004DC5E9FF4EC5EAFF090EEB50030805E011
:105760000501820E866FC0EC3DF000C5D4FB01C57B
:10577000D5FB4DC5E9FF4EC5EAFF090EEB50030806
:1057800004E00501866BC0EC3DF00501866BC0ECC2
:105790003DF00501020E866FC0EC3DF00501010EE3
:1057A000866FC0EC3DF04DC5E9FF4EC5EAFF090E1E
:1057B000EB500501866FC0EC3DF051C5B9FB05010A
:1057C000040E866FC0EC3DF051C586F5C0EC3DF08F
:1057D00005015151510700090BE005014FC5E9FFD3
:1057E00050C5EAFF4F2B000E5023EFCF86F5EED7C2
:1057F0000901562B0501A20E866FC0EC3DF04DC588
:10580000E9FF4EC5EAFF090EEB50030805E005016C
:10581000820E866FC0EC3DF000C5D6FB01C5D7FBFC
:105820004DC5E9FF4EC5EAFF090EEB50030804E041
:105830000501866BC0EC3DF00501866BC0EC3DF0C8
:105840000501020E866FC0EC3DF00501040E866F67
:10585000C0EC3DF04DC5E9FF4EC5EAFF030EE92659
:10586000000EEA22EFCF86F5C0EC3DF04DC5E9FF12
:105870004EC5EAFF020EE926000EEA22EFCF86F5BA
:10588000C0EC3DF04DC5E9FF4EC5EAFF010EE9262B
:10589000000EEA22EFCF86F5C0EC3DF04DC5E9FFE2
:1058A0004EC5EAFFEFCF86F5C0EC3DF00901562B5F
:1058B0000501020E866FC0EC3DF00501010E866FFA
:1058C000C0EC3DF000C5D8FB01C5D9FB0501866BD6
:1058D000C0EC3DF00901562B0501020E866FC0ECAD
:1058E0003DF00501010E866FC0EC3DF000C5DAFB0E
:1058F00001C5DBFB0501866BC0EC3DF00B01B76B0E
:105900000B01B86B0B01FE6B0901562B0501E00E74
:10591000836F0B0E846F92EC3DF0000901E1000CE7
:10592000E0CBAEF5E1CBAFF5B8EC43F00B01BB6FCC
:105930000901562BBBCBC0FB0B01C16B0B01C26B2A
:105940004DC5E9FF4EC5EAFF090EEB50010808E01E
:105950004DC5E9FF4EC5EAFF090EEB50030832E1E1
:105960004DC5E9FF4EC5EAFF060EEB50A5082AE13A
:105970004DC5E9FF4EC5EAFF040EEB50146E0B0156
:10598000BB51D880145408E34DC5E9FF4EC5EAFF6A
:10599000040EEB500B01C06F4DC5E9FF4EC5EAFF89
:1059A000050EEB500B01C16F0B01C0510B01BB5D2C
:1059B000146E000E145C06E30B01C0510B01BB5DBD
:1059C0000B01C26FC0CBBCFB0B01C1510B01C20369
:1059D000F3500B01C0250B01BD6F0901562B0501CA
:1059E000300E866FC0EC3DF00501820E866FC0EC74
:1059F0003DF000C5CCFB01C5CDFB0501866BC0ECBD
:105A00003DF00501866BC0EC3DF00901546B556B10
:105A10000901562B0B01C05117E102C5DEFB03C57E
:105A2000DFFB09010B0E566F00C5DCFB01C5DDFB7A
:105A3000040E050100250501006F000E050101217E
:105A40000501016F12EF34F00B01B72B0501E20ED7
:105A5000836F0B0E846F92EC3DF00B01A66F0B0170
:105A6000E85011E1B7CBADF50501050EAC6FDACB0F
:105A7000AAF5DBCBABF5D8CBA8F5D9CBA9F59FEC34
:105A800043F0A8EF34F00B01E2510B01E05F0B0192
:105A9000E3510B01E15B0B01A651146E156A145022
:105AA0000B01E05F15500B01E15B00C5DCFB01C59C
